{
  "_format": "hh-sol-artifact-1",
  "contractName": "KamilTouch",
  "sourceName": "contracts/KamilTouch.sol",
  "abi": [
    {
      "inputs": [],
      "stateMutability": "nonpayable",
      "type": "constructor"
    },
    {
      "anonymous": false,
      "inputs": [
        {
          "indexed": true,
          "internalType": "address",
          "name": "owner",
          "type": "address"
        },
        {
          "indexed": true,
          "internalType": "address",
          "name": "approved",
          "type": "address"
        },
        {
          "indexed": true,
          "internalType": "uint256",
          "name": "tokenId",
          "type": "uint256"
        }
      ],
      "name": "Approval",
      "type": "event"
    },
    {
      "anonymous": false,
      "inputs": [
        {
          "indexed": true,
          "internalType": "address",
          "name": "owner",
          "type": "address"
        },
        {
          "indexed": true,
          "internalType": "address",
          "name": "operator",
          "type": "address"
        },
        {
          "indexed": false,
          "internalType": "bool",
          "name": "approved",
          "type": "bool"
        }
      ],
      "name": "ApprovalForAll",
      "type": "event"
    },
    {
      "anonymous": false,
      "inputs": [
        {
          "indexed": true,
          "internalType": "address",
          "name": "from",
          "type": "address"
        },
        {
          "indexed": true,
          "internalType": "address",
          "name": "to",
          "type": "address"
        },
        {
          "indexed": true,
          "internalType": "uint256",
          "name": "tokenId",
          "type": "uint256"
        }
      ],
      "name": "Transfer",
      "type": "event"
    },
    {
      "inputs": [
        {
          "internalType": "address",
          "name": "to",
          "type": "address"
        },
        {
          "internalType": "uint256",
          "name": "tokenId",
          "type": "uint256"
        }
      ],
      "name": "approve",
      "outputs": [],
      "stateMutability": "nonpayable",
      "type": "function"
    },
    {
      "inputs": [
        {
          "internalType": "address",
          "name": "owner",
          "type": "address"
        }
      ],
      "name": "balanceOf",
      "outputs": [
        {
          "internalType": "uint256",
          "name": "",
          "type": "uint256"
        }
      ],
      "stateMutability": "view",
      "type": "function"
    },
    {
      "inputs": [
        {
          "internalType": "uint256",
          "name": "_index",
          "type": "uint256"
        }
      ],
      "name": "buyPainting",
      "outputs": [],
      "stateMutability": "payable",
      "type": "function"
    },
    {
      "inputs": [
        {
          "internalType": "uint256",
          "name": "tokenId",
          "type": "uint256"
        }
      ],
      "name": "getApproved",
      "outputs": [
        {
          "internalType": "address",
          "name": "",
          "type": "address"
        }
      ],
      "stateMutability": "view",
      "type": "function"
    },
    {
      "inputs": [
        {
          "internalType": "address",
          "name": "owner",
          "type": "address"
        },
        {
          "internalType": "address",
          "name": "operator",
          "type": "address"
        }
      ],
      "name": "isApprovedForAll",
      "outputs": [
        {
          "internalType": "bool",
          "name": "",
          "type": "bool"
        }
      ],
      "stateMutability": "view",
      "type": "function"
    },
    {
      "inputs": [
        {
          "internalType": "uint256",
          "name": "_index",
          "type": "uint256"
        }
      ],
      "name": "likePainting",
      "outputs": [],
      "stateMutability": "nonpayable",
      "type": "function"
    },
    {
      "inputs": [],
      "name": "name",
      "outputs": [
        {
          "internalType": "string",
          "name": "",
          "type": "string"
        }
      ],
      "stateMutability": "view",
      "type": "function"
    },
    {
      "inputs": [
        {
          "internalType": "address",
          "name": "",
          "type": "address"
        },
        {
          "internalType": "address",
          "name": "",
          "type": "address"
        },
        {
          "internalType": "uint256",
          "name": "",
          "type": "uint256"
        },
        {
          "internalType": "bytes",
          "name": "",
          "type": "bytes"
        }
      ],
      "name": "onERC721Received",
      "outputs": [
        {
          "internalType": "bytes4",
          "name": "",
          "type": "bytes4"
        }
      ],
      "stateMutability": "pure",
      "type": "function"
    },
    {
      "inputs": [
        {
          "internalType": "uint256",
          "name": "tokenId",
          "type": "uint256"
        }
      ],
      "name": "ownerOf",
      "outputs": [
        {
          "internalType": "address",
          "name": "",
          "type": "address"
        }
      ],
      "stateMutability": "view",
      "type": "function"
    },
    {
      "inputs": [
        {
          "internalType": "uint256",
          "name": "_index",
          "type": "uint256"
        }
      ],
      "name": "readPainting",
      "outputs": [
        {
          "internalType": "address payable",
          "name": "",
          "type": "address"
        },
        {
          "internalType": "string",
          "name": "",
          "type": "string"
        },
        {
          "internalType": "uint256",
          "name": "",
          "type": "uint256"
        },
        {
          "internalType": "uint256",
          "name": "",
          "type": "uint256"
        },
        {
          "internalType": "uint256",
          "name": "",
          "type": "uint256"
        },
        {
          "internalType": "bool",
          "name": "",
          "type": "bool"
        }
      ],
      "stateMutability": "view",
      "type": "function"
    },
    {
      "inputs": [
        {
          "internalType": "address",
          "name": "from",
          "type": "address"
        },
        {
          "internalType": "address",
          "name": "to",
          "type": "address"
        },
        {
          "internalType": "uint256",
          "name": "tokenId",
          "type": "uint256"
        }
      ],
      "name": "safeTransferFrom",
      "outputs": [],
      "stateMutability": "nonpayable",
      "type": "function"
    },
    {
      "inputs": [
        {
          "internalType": "address",
          "name": "from",
          "type": "address"
        },
        {
          "internalType": "address",
          "name": "to",
          "type": "address"
        },
        {
          "internalType": "uint256",
          "name": "tokenId",
          "type": "uint256"
        },
        {
          "internalType": "bytes",
          "name": "data",
          "type": "bytes"
        }
      ],
      "name": "safeTransferFrom",
      "outputs": [],
      "stateMutability": "nonpayable",
      "type": "function"
    },
    {
      "inputs": [
        {
          "internalType": "address",
          "name": "operator",
          "type": "address"
        },
        {
          "internalType": "bool",
          "name": "approved",
          "type": "bool"
        }
      ],
      "name": "setApprovalForAll",
      "outputs": [],
      "stateMutability": "nonpayable",
      "type": "function"
    },
    {
      "inputs": [
        {
          "internalType": "bytes4",
          "name": "interfaceId",
          "type": "bytes4"
        }
      ],
      "name": "supportsInterface",
      "outputs": [
        {
          "internalType": "bool",
          "name": "",
          "type": "bool"
        }
      ],
      "stateMutability": "view",
      "type": "function"
    },
    {
      "inputs": [],
      "name": "symbol",
      "outputs": [
        {
          "internalType": "string",
          "name": "",
          "type": "string"
        }
      ],
      "stateMutability": "view",
      "type": "function"
    },
    {
      "inputs": [
        {
          "internalType": "uint256",
          "name": "index",
          "type": "uint256"
        }
      ],
      "name": "tokenByIndex",
      "outputs": [
        {
          "internalType": "uint256",
          "name": "",
          "type": "uint256"
        }
      ],
      "stateMutability": "view",
      "type": "function"
    },
    {
      "inputs": [
        {
          "internalType": "address",
          "name": "owner",
          "type": "address"
        },
        {
          "internalType": "uint256",
          "name": "index",
          "type": "uint256"
        }
      ],
      "name": "tokenOfOwnerByIndex",
      "outputs": [
        {
          "internalType": "uint256",
          "name": "",
          "type": "uint256"
        }
      ],
      "stateMutability": "view",
      "type": "function"
    },
    {
      "inputs": [
        {
          "internalType": "uint256",
          "name": "tokenId",
          "type": "uint256"
        }
      ],
      "name": "tokenURI",
      "outputs": [
        {
          "internalType": "string",
          "name": "",
          "type": "string"
        }
      ],
      "stateMutability": "view",
      "type": "function"
    },
    {
      "inputs": [],
      "name": "totalSupply",
      "outputs": [
        {
          "internalType": "uint256",
          "name": "",
          "type": "uint256"
        }
      ],
      "stateMutability": "view",
      "type": "function"
    },
    {
      "inputs": [
        {
          "internalType": "address",
          "name": "from",
          "type": "address"
        },
        {
          "internalType": "address",
          "name": "to",
          "type": "address"
        },
        {
          "internalType": "uint256",
          "name": "tokenId",
          "type": "uint256"
        }
      ],
      "name": "transferFrom",
      "outputs": [],
      "stateMutability": "nonpayable",
      "type": "function"
    },
    {
      "inputs": [
        {
          "internalType": "string",
          "name": "_imageUrl",
          "type": "string"
        },
        {
          "internalType": "uint256",
          "name": "_price",
          "type": "uint256"
        }
      ],
      "name": "writePainting",
      "outputs": [],
      "stateMutability": "nonpayable",
      "type": "function"
    }
  ],
  "bytecode": "0x60806040523480156200001157600080fd5b506040518060400160405280600a81526020017f4b616d696c546f756368000000000000000000000000000000000000000000008152506040518060400160405280600381526020017f4b4d540000000000000000000000000000000000000000000000000000000000815250816000908051906020019062000096929190620000b8565b508060019080519060200190620000af929190620000b8565b505050620001cd565b828054620000c69062000168565b90600052602060002090601f016020900481019282620000ea576000855562000136565b82601f106200010557805160ff191683800117855562000136565b8280016001018555821562000136579182015b828111156200013557825182559160200191906001019062000118565b5b50905062000145919062000149565b5090565b5b80821115620001645760008160009055506001016200014a565b5090565b600060028204905060018216806200018157607f821691505b602082108114156200019857620001976200019e565b5b50919050565b7f4e487b7100000000000000000000000000000000000000000000000000000000600052602260045260246000fd5b613d7680620001dd6000396000f3fe60806040526004361061012a5760003560e01c80634f6ccce7116100ab57806395d89b411161006f57806395d89b411461043f578063a22cb4651461046a578063b2edb37e14610493578063b88d4fde146104af578063c87b56dd146104d8578063e985e9c5146105155761012a565b80634f6ccce7146103365780636352211e1461037357806370a08231146103b057806370a9ff86146103ed5780638bde2e07146104165761012a565b806318160ddd116100f257806318160ddd1461023a57806323b872dd146102655780632f745c591461028e57806339a8fd03146102cb57806342842e0e1461030d5761012a565b806301ffc9a71461012f57806306fdde031461016c578063081812fc14610197578063095ea7b3146101d4578063150b7a02146101fd575b600080fd5b34801561013b57600080fd5b5061015660048036038101906101519190612c4a565b610552565b6040516101639190613193565b60405180910390f35b34801561017857600080fd5b50610181610564565b60405161018e91906131c9565b60405180910390f35b3480156101a357600080fd5b506101be60048036038101906101b99190612cf0565b6105f6565b6040516101cb91906130c4565b60405180910390f35b3480156101e057600080fd5b506101fb60048036038101906101f69190612c0e565b61063c565b005b34801561020957600080fd5b50610224600480360381019061021f9190612ad7565b610754565b60405161023191906131ae565b60405180910390f35b34801561024657600080fd5b5061024f610769565b60405161025c919061344b565b60405180910390f35b34801561027157600080fd5b5061028c60048036038101906102879190612a88565b610776565b005b34801561029a57600080fd5b506102b560048036038101906102b09190612c0e565b6107d6565b6040516102c2919061344b565b60405180910390f35b3480156102d757600080fd5b506102f260048036038101906102ed9190612cf0565b61087b565b604051610304969594939291906130df565b60405180910390f35b34801561031957600080fd5b50610334600480360381019061032f9190612a88565b6109dc565b005b34801561034257600080fd5b5061035d60048036038101906103589190612cf0565b6109fc565b60405161036a919061344b565b60405180910390f35b34801561037f57600080fd5b5061039a60048036038101906103959190612cf0565b610a93565b6040516103a791906130c4565b60405180910390f35b3480156103bc57600080fd5b506103d760048036038101906103d29190612a23565b610b45565b6040516103e4919061344b565b60405180910390f35b3480156103f957600080fd5b50610414600480360381019061040f9190612c9c565b610bfd565b005b34801561042257600080fd5b5061043d60048036038101906104389190612cf0565b610d1f565b005b34801561044b57600080fd5b50610454610e55565b60405161046191906131c9565b60405180910390f35b34801561047657600080fd5b50610491600480360381019061048c9190612bd2565b610ee7565b005b6104ad60048036038101906104a89190612cf0565b610efd565b005b3480156104bb57600080fd5b506104d660048036038101906104d19190612b57565b611188565b005b3480156104e457600080fd5b506104ff60048036038101906104fa9190612cf0565b6111ea565b60405161050c91906131c9565b60405180910390f35b34801561052157600080fd5b5061053c60048036038101906105379190612a4c565b6111fc565b6040516105499190613193565b60405180910390f35b600061055d82611290565b9050919050565b606060008054610573906136b3565b80601f016020809104026020016040519081016040528092919081815260200182805461059f906136b3565b80156105ec5780601f106105c1576101008083540402835291602001916105ec565b820191906000526020600020905b8154815290600101906020018083116105cf57829003601f168201915b5050505050905090565b60006106018261130a565b6004600083815260200190815260200160002060009054906101000a900473ffffffffffffffffffffffffffffffffffffffff169050919050565b600061064782610a93565b90508073ffffffffffffffffffffffffffffffffffffffff168373ffffffffffffffffffffffffffffffffffffffff1614156106b8576040517f08c379a00000000000000000000000000000000000000000000000000000000081526004016106af906133cb565b60405180910390fd5b8073ffffffffffffffffffffffffffffffffffffffff166106d7611355565b73ffffffffffffffffffffffffffffffffffffffff161480610706575061070581610700611355565b6111fc565b5b610745576040517f08c379a000000000000000000000000000000000000000000000000000000000815260040161073c9061334b565b60405180910390fd5b61074f838361135d565b505050565b600063150b7a0260e01b905095945050505050565b6000600880549050905090565b610787610781611355565b82611416565b6107c6576040517f08c379a00000000000000000000000000000000000000000000000000000000081526004016107bd9061342b565b60405180910390fd5b6107d18383836114ab565b505050565b60006107e183610b45565b8210610822576040517f08c379a0000000000000000000000000000000000000000000000000000000008152600401610819906131eb565b60405180910390fd5b600660008473ffffffffffffffffffffffffffffffffffffffff1673ffffffffffffffffffffffffffffffffffffffff168152602001908152602001600020600083815260200190815260200160002054905092915050565b60006060600080600080600c600088815260200190815260200160002060000160009054906101000a900473ffffffffffffffffffffffffffffffffffffffff16600c6000898152602001908152602001600020600101600c60008a815260200190815260200160002060020154600c60008b815260200190815260200160002060030154600c60008c815260200190815260200160002060040154600c60008d815260200190815260200160002060050160009054906101000a900460ff16848054610947906136b3565b80601f0160208091040260200160405190810160405280929190818152602001828054610973906136b3565b80156109c05780601f10610995576101008083540402835291602001916109c0565b820191906000526020600020905b8154815290600101906020018083116109a357829003601f168201915b5050505050945095509550955095509550955091939550919395565b6109f783838360405180602001604052806000815250611188565b505050565b6000610a06610769565b8210610a47576040517f08c379a0000000000000000000000000000000000000000000000000000000008152600401610a3e9061340b565b60405180910390fd5b60088281548110610a81577f4e487b7100000000000000000000000000000000000000000000000000000000600052603260045260246000fd5b90600052602060002001549050919050565b6000806002600084815260200190815260200160002060009054906101000a900473ffffffffffffffffffffffffffffffffffffffff169050600073ffffffffffffffffffffffffffffffffffffffff168173ffffffffffffffffffffffffffffffffffffffff161415610b3c576040517f08c379a0000000000000000000000000000000000000000000000000000000008152600401610b33906133ab565b60405180910390fd5b80915050919050565b60008073ffffffffffffffffffffffffffffffffffffffff168273ffffffffffffffffffffffffffffffffffffffff161415610bb6576040517f08c379a0000000000000000000000000000000000000000000000000000000008152600401610bad906132eb565b60405180910390fd5b600360008373ffffffffffffffffffffffffffffffffffffffff1673ffffffffffffffffffffffffffffffffffffffff168152602001908152602001600020549050919050565b6000806040518060c001604052803373ffffffffffffffffffffffffffffffffffffffff168152602001858152602001610c37600b611712565b8152602001848152602001828152602001831515815250600c6000610c5c600b611712565b815260200190815260200160002060008201518160000160006101000a81548173ffffffffffffffffffffffffffffffffffffffff021916908373ffffffffffffffffffffffffffffffffffffffff1602179055506020820151816001019080519060200190610ccd9291906127fd565b5060408201518160020155606082015181600301556080820151816004015560a08201518160050160006101000a81548160ff021916908315150217905550905050610d193385611720565b50505050565b600d600082815260200190815260200160002060003373ffffffffffffffffffffffffffffffffffffffff1673ffffffffffffffffffffffffffffffffffffffff16815260200190815260200160002060009054906101000a900460ff1615610dbd576040517f08c379a0000000000000000000000000000000000000000000000000000000008152600401610db4906133eb565b60405180910390fd5b600c60008281526020019081526020016000206004016000815480929190610de490613716565b91905055506001600d600083815260200190815260200160002060003373ffffffffffffffffffffffffffffffffffffffff1673ffffffffffffffffffffffffffffffffffffffff16815260200190815260200160002060006101000a81548160ff02191690831515021790555050565b606060018054610e64906136b3565b80601f0160208091040260200160405190810160405280929190818152602001828054610e90906136b3565b8015610edd5780601f10610eb257610100808354040283529160200191610edd565b820191906000526020600020905b815481529060010190602001808311610ec057829003601f168201915b5050505050905090565b610ef9610ef2611355565b8383611800565b5050565b6000600c60008381526020019081526020016000206003015490506000600c600084815260200190815260200160002060050160009054906101000a900460ff169050600c600084815260200190815260200160002060000160009054906101000a900473ffffffffffffffffffffffffffffffffffffffff1673ffffffffffffffffffffffffffffffffffffffff163373ffffffffffffffffffffffffffffffffffffffff161415610fe5576040517f08c379a0000000000000000000000000000000000000000000000000000000008152600401610fdc9061332b565b60405180910390fd5b8015611026576040517f08c379a000000000000000000000000000000000000000000000000000000000815260040161101d906132cb565b60405180910390fd5b81341015611069576040517f08c379a00000000000000000000000000000000000000000000000000000000081526004016110609061338b565b60405180910390fd5b600061107484610a93565b90506110818133866114ab565b600c600085815260200190815260200160002060000160009054906101000a900473ffffffffffffffffffffffffffffffffffffffff1673ffffffffffffffffffffffffffffffffffffffff166108fc349081150290604051600060405180830381858888f193505050501580156110fd573d6000803e3d6000fd5b5033600c600086815260200190815260200160002060000160006101000a81548173ffffffffffffffffffffffffffffffffffffffff021916908373ffffffffffffffffffffffffffffffffffffffff1602179055506001600c600086815260200190815260200160002060050160006101000a81548160ff02191690831515021790555050505050565b611199611193611355565b83611416565b6111d8576040517f08c379a00000000000000000000000000000000000000000000000000000000081526004016111cf9061342b565b60405180910390fd5b6111e48484848461196d565b50505050565b60606111f5826119c9565b9050919050565b6000600560008473ffffffffffffffffffffffffffffffffffffffff1673ffffffffffffffffffffffffffffffffffffffff16815260200190815260200160002060008373ffffffffffffffffffffffffffffffffffffffff1673ffffffffffffffffffffffffffffffffffffffff16815260200190815260200160002060009054906101000a900460ff16905092915050565b60007f780e9d63000000000000000000000000000000000000000000000000000000007bffffffffffffffffffffffffffffffffffffffffffffffffffffffff1916827bffffffffffffffffffffffffffffffffffffffffffffffffffffffff19161480611303575061130282611adc565b5b9050919050565b61131381611bbe565b611352576040517f08c379a0000000000000000000000000000000000000000000000000000000008152600401611349906133ab565b60405180910390fd5b50565b600033905090565b816004600083815260200190815260200160002060006101000a81548173ffffffffffffffffffffffffffffffffffffffff021916908373ffffffffffffffffffffffffffffffffffffffff160217905550808273ffffffffffffffffffffffffffffffffffffffff166113d083610a93565b73ffffffffffffffffffffffffffffffffffffffff167f8c5be1e5ebec7d5bd14f71427d1e84f3dd0314c0f7b2291e5b200ac8c7c3b92560405160405180910390a45050565b60008061142283610a93565b90508073ffffffffffffffffffffffffffffffffffffffff168473ffffffffffffffffffffffffffffffffffffffff161480611464575061146381856111fc565b5b806114a257508373ffffffffffffffffffffffffffffffffffffffff1661148a846105f6565b73ffffffffffffffffffffffffffffffffffffffff16145b91505092915050565b8273ffffffffffffffffffffffffffffffffffffffff166114cb82610a93565b73ffffffffffffffffffffffffffffffffffffffff1614611521576040517f08c379a00000000000000000000000000000000000000000000000000000000081526004016115189061322b565b60405180910390fd5b600073ffffffffffffffffffffffffffffffffffffffff168273ffffffffffffffffffffffffffffffffffffffff161415611591576040517f08c379a00000000000000000000000000000000000000000000000000000000081526004016115889061326b565b60405180910390fd5b61159c838383611c2a565b6115a760008261135d565b6001600360008573ffffffffffffffffffffffffffffffffffffffff1673ffffffffffffffffffffffffffffffffffffffff16815260200190815260200160002060008282546115f791906135b7565b925050819055506001600360008473ffffffffffffffffffffffffffffffffffffffff1673ffffffffffffffffffffffffffffffffffffffff168152602001908152602001600020600082825461164e9190613530565b92505081905550816002600083815260200190815260200160002060006101000a81548173ffffffffffffffffffffffffffffffffffffffff021916908373ffffffffffffffffffffffffffffffffffffffff160217905550808273ffffffffffffffffffffffffffffffffffffffff168473ffffffffffffffffffffffffffffffffffffffff167fddf252ad1be2c89b69c2b068fc378daa952ba7f163c4a11628f55a4df523b3ef60405160405180910390a461170d838383611c3a565b505050565b600081600001549050919050565b61172a600b611712565b600c600082815260200190815260200160002060000160009054906101000a900473ffffffffffffffffffffffffffffffffffffffff1673ffffffffffffffffffffffffffffffffffffffff163373ffffffffffffffffffffffffffffffffffffffff16146117ce576040517f08c379a00000000000000000000000000000000000000000000000000000000081526004016117c59061328b565b60405180910390fd5b60006117da600b611712565b90506117e68482611c3f565b6117f08184611c5d565b6117fa600b611cd1565b50505050565b8173ffffffffffffffffffffffffffffffffffffffff168373ffffffffffffffffffffffffffffffffffffffff16141561186f576040517f08c379a0000000000000000000000000000000000000000000000000000000008152600401611866906132ab565b60405180910390fd5b80600560008573ffffffffffffffffffffffffffffffffffffffff1673ffffffffffffffffffffffffffffffffffffffff16815260200190815260200160002060008473ffffffffffffffffffffffffffffffffffffffff1673ffffffffffffffffffffffffffffffffffffffff16815260200190815260200160002060006101000a81548160ff0219169083151502179055508173ffffffffffffffffffffffffffffffffffffffff168373ffffffffffffffffffffffffffffffffffffffff167f17307eab39ab6107e8899845ad3d59bd9653f200f220920489ca2b5937696c31836040516119609190613193565b60405180910390a3505050565b6119788484846114ab565b61198484848484611ce7565b6119c3576040517f08c379a00000000000000000000000000000000000000000000000000000000081526004016119ba9061320b565b60405180910390fd5b50505050565b60606119d48261130a565b6000600a600084815260200190815260200160002080546119f4906136b3565b80601f0160208091040260200160405190810160405280929190818152602001828054611a20906136b3565b8015611a6d5780601f10611a4257610100808354040283529160200191611a6d565b820191906000526020600020905b815481529060010190602001808311611a5057829003601f168201915b505050505090506000611a7e611e7e565b9050600081511415611a94578192505050611ad7565b600082511115611ac9578082604051602001611ab19291906130a0565b60405160208183030381529060405292505050611ad7565b611ad284611e95565b925050505b919050565b60007f80ac58cd000000000000000000000000000000000000000000000000000000007bffffffffffffffffffffffffffffffffffffffffffffffffffffffff1916827bffffffffffffffffffffffffffffffffffffffffffffffffffffffff19161480611ba757507f5b5e139f000000000000000000000000000000000000000000000000000000007bffffffffffffffffffffffffffffffffffffffffffffffffffffffff1916827bffffffffffffffffffffffffffffffffffffffffffffffffffffffff1916145b80611bb75750611bb682611efd565b5b9050919050565b60008073ffffffffffffffffffffffffffffffffffffffff166002600084815260200190815260200160002060009054906101000a900473ffffffffffffffffffffffffffffffffffffffff1673ffffffffffffffffffffffffffffffffffffffff1614159050919050565b611c35838383611f67565b505050565b505050565b611c5982826040518060200160405280600081525061207b565b5050565b611c6682611bbe565b611ca5576040517f08c379a0000000000000000000000000000000000000000000000000000000008152600401611c9c9061330b565b60405180910390fd5b80600a60008481526020019081526020016000209080519060200190611ccc9291906127fd565b505050565b6001816000016000828254019250508190555050565b6000611d088473ffffffffffffffffffffffffffffffffffffffff166120d6565b15611e71578373ffffffffffffffffffffffffffffffffffffffff1663150b7a02611d31611355565b8786866040518563ffffffff1660e01b8152600401611d539493929190613147565b602060405180830381600087803b158015611d6d57600080fd5b505af1925050508015611d9e57506040513d601f19601f82011682018060405250810190611d9b9190612c73565b60015b611e21573d8060008114611dce576040519150601f19603f3d011682016040523d82523d6000602084013e611dd3565b606091505b50600081511415611e19576040517f08c379a0000000000000000000000000000000000000000000000000000000008152600401611e109061320b565b60405180910390fd5b805181602001fd5b63150b7a0260e01b7bffffffffffffffffffffffffffffffffffffffffffffffffffffffff1916817bffffffffffffffffffffffffffffffffffffffffffffffffffffffff191614915050611e76565b600190505b949350505050565b606060405180602001604052806000815250905090565b6060611ea08261130a565b6000611eaa611e7e565b90506000815111611eca5760405180602001604052806000815250611ef5565b80611ed4846120f9565b604051602001611ee59291906130a0565b6040516020818303038152906040525b915050919050565b60007f01ffc9a7000000000000000000000000000000000000000000000000000000007bffffffffffffffffffffffffffffffffffffffffffffffffffffffff1916827bffffffffffffffffffffffffffffffffffffffffffffffffffffffff1916149050919050565b611f728383836122a6565b600073ffffffffffffffffffffffffffffffffffffffff168373ffffffffffffffffffffffffffffffffffffffff161415611fb557611fb0816122ab565b611ff4565b8173ffffffffffffffffffffffffffffffffffffffff168373ffffffffffffffffffffffffffffffffffffffff1614611ff357611ff283826122f4565b5b5b600073ffffffffffffffffffffffffffffffffffffffff168273ffffffffffffffffffffffffffffffffffffffff1614156120375761203281612461565b612076565b8273ffffffffffffffffffffffffffffffffffffffff168273ffffffffffffffffffffffffffffffffffffffff16146120755761207482826125a4565b5b5b505050565b6120858383612623565b6120926000848484611ce7565b6120d1576040517f08c379a00000000000000000000000000000000000000000000000000000000081526004016120c89061320b565b60405180910390fd5b505050565b6000808273ffffffffffffffffffffffffffffffffffffffff163b119050919050565b60606000821415612141576040518060400160405280600181526020017f300000000000000000000000000000000000000000000000000000000000000081525090506122a1565b600082905060005b6000821461217357808061215c90613716565b915050600a8261216c9190613586565b9150612149565b60008167ffffffffffffffff8111156121b5577f4e487b7100000000000000000000000000000000000000000000000000000000600052604160045260246000fd5b6040519080825280601f01601f1916602001820160405280156121e75781602001600182028036833780820191505090505b5090505b6000851461229a5760018261220091906135b7565b9150600a8561220f919061375f565b603061221b9190613530565b60f81b818381518110612257577f4e487b7100000000000000000000000000000000000000000000000000000000600052603260045260246000fd5b60200101907effffffffffffffffffffffffffffffffffffffffffffffffffffffffffffff1916908160001a905350600a856122939190613586565b94506121eb565b8093505050505b919050565b505050565b6008805490506009600083815260200190815260200160002081905550600881908060018154018082558091505060019003906000526020600020016000909190919091505550565b6000600161230184610b45565b61230b91906135b7565b90506000600760008481526020019081526020016000205490508181146123f0576000600660008673ffffffffffffffffffffffffffffffffffffffff1673ffffffffffffffffffffffffffffffffffffffff168152602001908152602001600020600084815260200190815260200160002054905080600660008773ffffffffffffffffffffffffffffffffffffffff1673ffffffffffffffffffffffffffffffffffffffff168152602001908152602001600020600084815260200190815260200160002081905550816007600083815260200190815260200160002081905550505b6007600084815260200190815260200160002060009055600660008573ffffffffffffffffffffffffffffffffffffffff1673ffffffffffffffffffffffffffffffffffffffff16815260200190815260200160002060008381526020019081526020016000206000905550505050565b6000600160088054905061247591906135b7565b90506000600960008481526020019081526020016000205490506000600883815481106124cb577f4e487b7100000000000000000000000000000000000000000000000000000000600052603260045260246000fd5b906000526020600020015490508060088381548110612513577f4e487b7100000000000000000000000000000000000000000000000000000000600052603260045260246000fd5b906000526020600020018190555081600960008381526020019081526020016000208190555060096000858152602001908152602001600020600090556008805480612588577f4e487b7100000000000000000000000000000000000000000000000000000000600052603160045260246000fd5b6001900381819060005260206000200160009055905550505050565b60006125af83610b45565b905081600660008573ffffffffffffffffffffffffffffffffffffffff1673ffffffffffffffffffffffffffffffffffffffff168152602001908152602001600020600083815260200190815260200160002081905550806007600084815260200190815260200160002081905550505050565b600073ffffffffffffffffffffffffffffffffffffffff168273ffffffffffffffffffffffffffffffffffffffff161415612693576040517f08c379a000000000000000000000000000000000000000000000000000000000815260040161268a9061336b565b60405180910390fd5b61269c81611bbe565b156126dc576040517f08c379a00000000000000000000000000000000000000000000000000000000081526004016126d39061324b565b60405180910390fd5b6126e860008383611c2a565b6001600360008473ffffffffffffffffffffffffffffffffffffffff1673ffffffffffffffffffffffffffffffffffffffff16815260200190815260200160002060008282546127389190613530565b92505081905550816002600083815260200190815260200160002060006101000a81548173ffffffffffffffffffffffffffffffffffffffff021916908373ffffffffffffffffffffffffffffffffffffffff160217905550808273ffffffffffffffffffffffffffffffffffffffff16600073ffffffffffffffffffffffffffffffffffffffff167fddf252ad1be2c89b69c2b068fc378daa952ba7f163c4a11628f55a4df523b3ef60405160405180910390a46127f960008383611c3a565b5050565b828054612809906136b3565b90600052602060002090601f01602090048101928261282b5760008555612872565b82601f1061284457805160ff1916838001178555612872565b82800160010185558215612872579182015b82811115612871578251825591602001919060010190612856565b5b50905061287f9190612883565b5090565b5b8082111561289c576000816000905550600101612884565b5090565b60006128b36128ae8461348b565b613466565b9050828152602081018484840111156128cb57600080fd5b6128d6848285613671565b509392505050565b60006128f16128ec846134bc565b613466565b90508281526020810184848401111561290957600080fd5b612914848285613671565b509392505050565b60008135905061292b81613ce4565b92915050565b60008135905061294081613cfb565b92915050565b60008135905061295581613d12565b92915050565b60008151905061296a81613d12565b92915050565b60008083601f84011261298257600080fd5b8235905067ffffffffffffffff81111561299b57600080fd5b6020830191508360018202830111156129b357600080fd5b9250929050565b600082601f8301126129cb57600080fd5b81356129db8482602086016128a0565b91505092915050565b600082601f8301126129f557600080fd5b8135612a058482602086016128de565b91505092915050565b600081359050612a1d81613d29565b92915050565b600060208284031215612a3557600080fd5b6000612a438482850161291c565b91505092915050565b60008060408385031215612a5f57600080fd5b6000612a6d8582860161291c565b9250506020612a7e8582860161291c565b9150509250929050565b600080600060608486031215612a9d57600080fd5b6000612aab8682870161291c565b9350506020612abc8682870161291c565b9250506040612acd86828701612a0e565b9150509250925092565b600080600080600060808688031215612aef57600080fd5b6000612afd8882890161291c565b9550506020612b0e8882890161291c565b9450506040612b1f88828901612a0e565b935050606086013567ffffffffffffffff811115612b3c57600080fd5b612b4888828901612970565b92509250509295509295909350565b60008060008060808587031215612b6d57600080fd5b6000612b7b8782880161291c565b9450506020612b8c8782880161291c565b9350506040612b9d87828801612a0e565b925050606085013567ffffffffffffffff811115612bba57600080fd5b612bc6878288016129ba565b91505092959194509250565b60008060408385031215612be557600080fd5b6000612bf38582860161291c565b9250506020612c0485828601612931565b9150509250929050565b60008060408385031215612c2157600080fd5b6000612c2f8582860161291c565b9250506020612c4085828601612a0e565b9150509250929050565b600060208284031215612c5c57600080fd5b6000612c6a84828501612946565b91505092915050565b600060208284031215612c8557600080fd5b6000612c938482850161295b565b91505092915050565b60008060408385031215612caf57600080fd5b600083013567ffffffffffffffff811115612cc957600080fd5b612cd5858286016129e4565b9250506020612ce685828601612a0e565b9150509250929050565b600060208284031215612d0257600080fd5b6000612d1084828501612a0e565b91505092915050565b612d22816135fd565b82525050565b612d31816135eb565b82525050565b612d408161360f565b82525050565b612d4f8161361b565b82525050565b6000612d60826134ed565b612d6a8185613503565b9350612d7a818560208601613680565b612d838161384c565b840191505092915050565b6000612d99826134f8565b612da38185613514565b9350612db3818560208601613680565b612dbc8161384c565b840191505092915050565b6000612dd2826134f8565b612ddc8185613525565b9350612dec818560208601613680565b80840191505092915050565b6000612e05602b83613514565b9150612e108261385d565b604082019050919050565b6000612e28603283613514565b9150612e33826138ac565b604082019050919050565b6000612e4b602583613514565b9150612e56826138fb565b604082019050919050565b6000612e6e601c83613514565b9150612e798261394a565b602082019050919050565b6000612e91602483613514565b9150612e9c82613973565b604082019050919050565b6000612eb4601a83613514565b9150612ebf826139c2565b602082019050919050565b6000612ed7601983613514565b9150612ee2826139eb565b602082019050919050565b6000612efa601f83613514565b9150612f0582613a14565b602082019050919050565b6000612f1d602983613514565b9150612f2882613a3d565b604082019050919050565b6000612f40602e83613514565b9150612f4b82613a8c565b604082019050919050565b6000612f63601b83613514565b9150612f6e82613adb565b602082019050919050565b6000612f86603e83613514565b9150612f9182613b04565b604082019050919050565b6000612fa9602083613514565b9150612fb482613b53565b602082019050919050565b6000612fcc601683613514565b9150612fd782613b7c565b602082019050919050565b6000612fef601883613514565b9150612ffa82613ba5565b602082019050919050565b6000613012602183613514565b915061301d82613bce565b604082019050919050565b6000613035600d83613514565b915061304082613c1d565b602082019050919050565b6000613058602c83613514565b915061306382613c46565b604082019050919050565b600061307b602e83613514565b915061308682613c95565b604082019050919050565b61309a81613667565b82525050565b60006130ac8285612dc7565b91506130b88284612dc7565b91508190509392505050565b60006020820190506130d96000830184612d28565b92915050565b600060c0820190506130f46000830189612d19565b81810360208301526131068188612d8e565b90506131156040830187613091565b6131226060830186613091565b61312f6080830185613091565b61313c60a0830184612d37565b979650505050505050565b600060808201905061315c6000830187612d28565b6131696020830186612d28565b6131766040830185613091565b81810360608301526131888184612d55565b905095945050505050565b60006020820190506131a86000830184612d37565b92915050565b60006020820190506131c36000830184612d46565b92915050565b600060208201905081810360008301526131e38184612d8e565b905092915050565b6000602082019050818103600083015261320481612df8565b9050919050565b6000602082019050818103600083015261322481612e1b565b9050919050565b6000602082019050818103600083015261324481612e3e565b9050919050565b6000602082019050818103600083015261326481612e61565b9050919050565b6000602082019050818103600083015261328481612e84565b9050919050565b600060208201905081810360008301526132a481612ea7565b9050919050565b600060208201905081810360008301526132c481612eca565b9050919050565b600060208201905081810360008301526132e481612eed565b9050919050565b6000602082019050818103600083015261330481612f10565b9050919050565b6000602082019050818103600083015261332481612f33565b9050919050565b6000602082019050818103600083015261334481612f56565b9050919050565b6000602082019050818103600083015261336481612f79565b9050919050565b6000602082019050818103600083015261338481612f9c565b9050919050565b600060208201905081810360008301526133a481612fbf565b9050919050565b600060208201905081810360008301526133c481612fe2565b9050919050565b600060208201905081810360008301526133e481613005565b9050919050565b6000602082019050818103600083015261340481613028565b9050919050565b600060208201905081810360008301526134248161304b565b9050919050565b600060208201905081810360008301526134448161306e565b9050919050565b60006020820190506134606000830184613091565b92915050565b6000613470613481565b905061347c82826136e5565b919050565b6000604051905090565b600067ffffffffffffffff8211156134a6576134a561381d565b5b6134af8261384c565b9050602081019050919050565b600067ffffffffffffffff8211156134d7576134d661381d565b5b6134e08261384c565b9050602081019050919050565b600081519050919050565b600081519050919050565b600082825260208201905092915050565b600082825260208201905092915050565b600081905092915050565b600061353b82613667565b915061354683613667565b9250827fffffffffffffffffffffffffffffffffffffffffffffffffffffffffffffffff0382111561357b5761357a613790565b5b828201905092915050565b600061359182613667565b915061359c83613667565b9250826135ac576135ab6137bf565b5b828204905092915050565b60006135c282613667565b91506135cd83613667565b9250828210156135e0576135df613790565b5b828203905092915050565b60006135f682613647565b9050919050565b600061360882613647565b9050919050565b60008115159050919050565b60007fffffffff0000000000000000000000000000000000000000000000000000000082169050919050565b600073ffffffffffffffffffffffffffffffffffffffff82169050919050565b6000819050919050565b82818337600083830152505050565b60005b8381101561369e578082015181840152602081019050613683565b838111156136ad576000848401525b50505050565b600060028204905060018216806136cb57607f821691505b602082108114156136df576136de6137ee565b5b50919050565b6136ee8261384c565b810181811067ffffffffffffffff8211171561370d5761370c61381d565b5b80604052505050565b600061372182613667565b91507fffffffffffffffffffffffffffffffffffffffffffffffffffffffffffffffff82141561375457613753613790565b5b600182019050919050565b600061376a82613667565b915061377583613667565b925082613785576137846137bf565b5b828206905092915050565b7f4e487b7100000000000000000000000000000000000000000000000000000000600052601160045260246000fd5b7f4e487b7100000000000000000000000000000000000000000000000000000000600052601260045260246000fd5b7f4e487b7100000000000000000000000000000000000000000000000000000000600052602260045260246000fd5b7f4e487b7100000000000000000000000000000000000000000000000000000000600052604160045260246000fd5b6000601f19601f8301169050919050565b7f455243373231456e756d657261626c653a206f776e657220696e646578206f7560008201527f74206f6620626f756e6473000000000000000000000000000000000000000000602082015250565b7f4552433732313a207472616e7366657220746f206e6f6e20455243373231526560008201527f63656976657220696d706c656d656e7465720000000000000000000000000000602082015250565b7f4552433732313a207472616e736665722066726f6d20696e636f72726563742060008201527f6f776e6572000000000000000000000000000000000000000000000000000000602082015250565b7f4552433732313a20746f6b656e20616c7265616479206d696e74656400000000600082015250565b7f4552433732313a207472616e7366657220746f20746865207a65726f2061646460008201527f7265737300000000000000000000000000000000000000000000000000000000602082015250565b7f4f6e6c79206f776e65722063616e206d696e7420616e204e4654000000000000600082015250565b7f4552433732313a20617070726f766520746f2063616c6c657200000000000000600082015250565b7f536f7272792c207061696e74696e6720697320616c726561647920736f6c6400600082015250565b7f4552433732313a2061646472657373207a65726f206973206e6f74206120766160008201527f6c6964206f776e65720000000000000000000000000000000000000000000000602082015250565b7f45524337323155524953746f726167653a2055524920736574206f66206e6f6e60008201527f6578697374656e7420746f6b656e000000000000000000000000000000000000602082015250565b7f43616e27742062757920796f7572206f776e207061696e74696e670000000000600082015250565b7f4552433732313a20617070726f76652063616c6c6572206973206e6f7420746f60008201527f6b656e206f776e6572206e6f7220617070726f76656420666f7220616c6c0000602082015250565b7f4552433732313a206d696e7420746f20746865207a65726f2061646472657373600082015250565b7f496e76616c6964207061696e74696e6720707269636500000000000000000000600082015250565b7f4552433732313a20696e76616c696420746f6b656e2049440000000000000000600082015250565b7f4552433732313a20617070726f76616c20746f2063757272656e74206f776e6560008201527f7200000000000000000000000000000000000000000000000000000000000000602082015250565b7f416c7265616479206c696b656400000000000000000000000000000000000000600082015250565b7f455243373231456e756d657261626c653a20676c6f62616c20696e646578206f60008201527f7574206f6620626f756e64730000000000000000000000000000000000000000602082015250565b7f4552433732313a2063616c6c6572206973206e6f7420746f6b656e206f776e6560008201527f72206e6f7220617070726f766564000000000000000000000000000000000000602082015250565b613ced816135eb565b8114613cf857600080fd5b50565b613d048161360f565b8114613d0f57600080fd5b50565b613d1b8161361b565b8114613d2657600080fd5b50565b613d3281613667565b8114613d3d57600080fd5b5056fea2646970667358221220132b839688f3514c5fc84685c205053d05432b194f9123fc6ae493bf00015d3964736f6c63430008040033",
  "linkReferences": {},
  "deployedLinkReferences": {}
}